{
  "_format": "hh-sol-artifact-1",
  "contractName": "POP",
  "sourceName": "contracts/POP.sol",
  "abi": [
    {
      "inputs": [],
      "stateMutability": "payable",
      "type": "constructor"
    },
    {
      "inputs": [
        {
          "internalType": "address",
          "name": "authrozie_address",
          "type": "address"
        }
      ],
      "name": "add_authorize_address",
      "outputs": [],
      "stateMutability": "nonpayable",
      "type": "function"
    },
    {
      "inputs": [
        {
          "internalType": "string",
          "name": "scope",
          "type": "string"
        },
        {
          "internalType": "address",
          "name": "user",
          "type": "address"
        }
      ],
      "name": "detect_batch_end",
      "outputs": [],
      "stateMutability": "nonpayable",
      "type": "function"
    },
    {
      "inputs": [],
      "name": "detect_batch_start",
      "outputs": [
        {
          "internalType": "enum POP.Movement[]",
          "name": "",
          "type": "uint8[]"
        }
      ],
      "stateMutability": "view",
      "type": "function"
    },
    {
      "inputs": [
        {
          "internalType": "string",
          "name": "scope",
          "type": "string"
        },
        {
          "internalType": "address",
          "name": "user",
          "type": "address"
        }
      ],
      "name": "get_token",
      "outputs": [
        {
          "components": [
            {
              "internalType": "address",
              "name": "user",
              "type": "address"
            },
            {
              "internalType": "string",
              "name": "scope",
              "type": "string"
            },
            {
              "internalType": "uint256",
              "name": "created_at",
              "type": "uint256"
            }
          ],
          "internalType": "struct POP.Token",
          "name": "",
          "type": "tuple"
        }
      ],
      "stateMutability": "view",
      "type": "function"
    },
    {
      "inputs": [],
      "name": "owner",
      "outputs": [
        {
          "internalType": "address",
          "name": "",
          "type": "address"
        }
      ],
      "stateMutability": "view",
      "type": "function"
    }
  ],
  "bytecode": "0x608060405233600160006101000a81548173ffffffffffffffffffffffffffffffffffffffff021916908373ffffffffffffffffffffffffffffffffffffffff1602179055506110ea806100546000396000f3fe608060405234801561001057600080fd5b50600436106100575760003560e01c80630c0424f11461005c5780632718f94e1461007a5780632fab7500146100aa5780638da5cb5b146100c6578063b8f06e18146100e4575b600080fd5b610064610100565b60405161007191906107b3565b60405180910390f35b610094600480360381019061008f91906108a2565b6101f3565b6040516100a19190610a0a565b60405180910390f35b6100c460048036038101906100bf91906108a2565b61035d565b005b6100ce61051f565b6040516100db9190610a3b565b60405180910390f35b6100fe60048036038101906100f99190610a56565b610545565b005b60606000600367ffffffffffffffff81111561011f5761011e610a83565b5b60405190808252806020026020018201604052801561014d5781602001602082028036833780820191505090505b5090506000805b60038110156101ea5760046101688361061d565b6101729190610ae1565b6003811115610184576101836106b9565b5b83828151811061019757610196610b12565b5b602002602001019060038111156101b1576101b06106b9565b5b908160038111156101c5576101c46106b9565b5b8152505081806101d490610b70565b92505080806101e290610b70565b915050610154565b50819250505090565b6101fb610656565b6000808373ffffffffffffffffffffffffffffffffffffffff1673ffffffffffffffffffffffffffffffffffffffff1681526020019081526020016000208484604051610249929190610bf7565b90815260200160405180910390206040518060600160405290816000820160009054906101000a900473ffffffffffffffffffffffffffffffffffffffff1673ffffffffffffffffffffffffffffffffffffffff1673ffffffffffffffffffffffffffffffffffffffff1681526020016001820180546102c890610c3f565b80601f01602080910402602001604051908101604052809291908181526020018280546102f490610c3f565b80156103415780601f1061031657610100808354040283529160200191610341565b820191906000526020600020905b81548152906001019060200180831161032457829003601f168201915b5050505050815260200160028201548152505090509392505050565b6000600260003373ffffffffffffffffffffffffffffffffffffffff1673ffffffffffffffffffffffffffffffffffffffff16815260200190815260200160002054036103df576040517f08c379a00000000000000000000000000000000000000000000000000000000081526004016103d690610cf3565b60405180910390fd5b60405180606001604052808273ffffffffffffffffffffffffffffffffffffffff16815260200184848080601f016020809104026020016040519081016040528093929190818152602001838380828437600081840152601f19601f820116905080830192505050505050508152602001428152506000808373ffffffffffffffffffffffffffffffffffffffff1673ffffffffffffffffffffffffffffffffffffffff16815260200190815260200160002084846040516104a2929190610bf7565b908152602001604051809103902060008201518160000160006101000a81548173ffffffffffffffffffffffffffffffffffffffff021916908373ffffffffffffffffffffffffffffffffffffffff160217905550602082015181600101908161050c9190610ebf565b5060408201518160020155905050505050565b600160009054906101000a900473ffffffffffffffffffffffffffffffffffffffff1681565b3373ffffffffffffffffffffffffffffffffffffffff16600160009054906101000a900473ffffffffffffffffffffffffffffffffffffffff1673ffffffffffffffffffffffffffffffffffffffff16146105d5576040517f08c379a00000000000000000000000000000000000000000000000000000000081526004016105cc90610fdd565b60405180910390fd5b6001600260008373ffffffffffffffffffffffffffffffffffffffff1673ffffffffffffffffffffffffffffffffffffffff1681526020019081526020016000208190555050565b6000424433846040516020016106369493929190611066565b6040516020818303038152906040528051906020012060001c9050919050565b6040518060600160405280600073ffffffffffffffffffffffffffffffffffffffff16815260200160608152602001600081525090565b600081519050919050565b600082825260208201905092915050565b6000819050602082019050919050565b7f4e487b7100000000000000000000000000000000000000000000000000000000600052602160045260246000fd5b600481106106f9576106f86106b9565b5b50565b600081905061070a826106e8565b919050565b600061071a826106fc565b9050919050565b61072a8161070f565b82525050565b600061073c8383610721565b60208301905092915050565b6000602082019050919050565b60006107608261068d565b61076a8185610698565b9350610775836106a9565b8060005b838110156107a657815161078d8882610730565b975061079883610748565b925050600181019050610779565b5085935050505092915050565b600060208201905081810360008301526107cd8184610755565b905092915050565b600080fd5b600080fd5b600080fd5b600080fd5b600080fd5b60008083601f840112610804576108036107df565b5b8235905067ffffffffffffffff811115610821576108206107e4565b5b60208301915083600182028301111561083d5761083c6107e9565b5b9250929050565b600073ffffffffffffffffffffffffffffffffffffffff82169050919050565b600061086f82610844565b9050919050565b61087f81610864565b811461088a57600080fd5b50565b60008135905061089c81610876565b92915050565b6000806000604084860312156108bb576108ba6107d5565b5b600084013567ffffffffffffffff8111156108d9576108d86107da565b5b6108e5868287016107ee565b935093505060206108f88682870161088d565b9150509250925092565b61090b81610864565b82525050565b600081519050919050565b600082825260208201905092915050565b60005b8381101561094b578082015181840152602081019050610930565b60008484015250505050565b6000601f19601f8301169050919050565b600061097382610911565b61097d818561091c565b935061098d81856020860161092d565b61099681610957565b840191505092915050565b6000819050919050565b6109b4816109a1565b82525050565b60006060830160008301516109d26000860182610902565b50602083015184820360208601526109ea8282610968565b91505060408301516109ff60408601826109ab565b508091505092915050565b60006020820190508181036000830152610a2481846109ba565b905092915050565b610a3581610864565b82525050565b6000602082019050610a506000830184610a2c565b92915050565b600060208284031215610a6c57610a6b6107d5565b5b6000610a7a8482850161088d565b91505092915050565b7f4e487b7100000000000000000000000000000000000000000000000000000000600052604160045260246000fd5b7f4e487b7100000000000000000000000000000000000000000000000000000000600052601260045260246000fd5b6000610aec826109a1565b9150610af7836109a1565b925082610b0757610b06610ab2565b5b828206905092915050565b7f4e487b7100000000000000000000000000000000000000000000000000000000600052603260045260246000fd5b7f4e487b7100000000000000000000000000000000000000000000000000000000600052601160045260246000fd5b6000610b7b826109a1565b91507fffffffffffffffffffffffffffffffffffffffffffffffffffffffffffffffff8203610bad57610bac610b41565b5b600182019050919050565b600081905092915050565b82818337600083830152505050565b6000610bde8385610bb8565b9350610beb838584610bc3565b82840190509392505050565b6000610c04828486610bd2565b91508190509392505050565b7f4e487b7100000000000000000000000000000000000000000000000000000000600052602260045260246000fd5b60006002820490506001821680610c5757607f821691505b602082108103610c6a57610c69610c10565b5b50919050565b600082825260208201905092915050565b7f6f6e6c7920617574686f72697a656420616464726573732063616e2063616c6c60008201527f2074686973206d6574686f640000000000000000000000000000000000000000602082015250565b6000610cdd602c83610c70565b9150610ce882610c81565b604082019050919050565b60006020820190508181036000830152610d0c81610cd0565b9050919050565b60008190508160005260206000209050919050565b60006020601f8301049050919050565b600082821b905092915050565b600060088302610d757fffffffffffffffffffffffffffffffffffffffffffffffffffffffffffffffff82610d38565b610d7f8683610d38565b95508019841693508086168417925050509392505050565b6000819050919050565b6000610dbc610db7610db2846109a1565b610d97565b6109a1565b9050919050565b6000819050919050565b610dd683610da1565b610dea610de282610dc3565b848454610d45565b825550505050565b600090565b610dff610df2565b610e0a818484610dcd565b505050565b5b81811015610e2e57610e23600082610df7565b600181019050610e10565b5050565b601f821115610e7357610e4481610d13565b610e4d84610d28565b81016020851015610e5c578190505b610e70610e6885610d28565b830182610e0f565b50505b505050565b600082821c905092915050565b6000610e9660001984600802610e78565b1980831691505092915050565b6000610eaf8383610e85565b9150826002028217905092915050565b610ec882610911565b67ffffffffffffffff811115610ee157610ee0610a83565b5b610eeb8254610c3f565b610ef6828285610e32565b600060209050601f831160018114610f295760008415610f17578287015190505b610f218582610ea3565b865550610f89565b601f198416610f3786610d13565b60005b82811015610f5f57848901518255600182019150602085019450602081019050610f3a565b86831015610f7c5784890151610f78601f891682610e85565b8355505b6001600288020188555050505b505050505050565b7f6f6e6c79206f776e65722063616e2063616c6c2074686973206d6574686f6400600082015250565b6000610fc7601f83610c70565b9150610fd282610f91565b602082019050919050565b60006020820190508181036000830152610ff681610fba565b9050919050565b6000819050919050565b611018611013826109a1565b610ffd565b82525050565b60008160601b9050919050565b60006110368261101e565b9050919050565b60006110488261102b565b9050919050565b61106061105b82610864565b61103d565b82525050565b60006110728287611007565b6020820191506110828286611007565b602082019150611092828561104f565b6014820191506110a28284611007565b6020820191508190509594505050505056fea26469706673582212200d0a139a639e89c95ca68c53eedd6ab1bdee0958f369e7baf5a1eb01969db63a64736f6c63430008110033",
  "linkReferences": {},
  "deployedLinkReferences": {}
}